:1000000071C000008EC000008CC0000044C200001F
:1000100088C0000086C0000084C0000082C00000CC
:1000200080C000007EC000007CC000007AC00000DC
:1000300078C0000076C0000074C0000072C00000EC
:1000400070C000006EC000006CC000006AC00000FC
:1000500068C0000066C0000064C0000062C000000C
:1000600060C000005EC000005CC000005AC000001C
:1000700058C0000056C0000054C0000052C000002C
:1000800050C000004EC000004CC000004AC000003C
:1000900048C0000046C0000044C0000042C000004C
:1000A00040C000003EC000003CC000003AC000005C
:1000B00038C0000036C0000034C0000032C000006C
:1000C00030C000002EC000002CC000002AC000007C
:1000D00028C0000026C0000024C0000022C000008C
:1000E00020C0000011241FBECFEFD1E2DEBFCDBF84
:1000F00000E00CBF12E0A0E0B2E0E2E0F5E000E0DA
:100100000BBF02C007900D92A63BB107D9F722E0C2
:10011000A6EBB2E001C01D92A73BB207E1F742D1C6
:10012000EEC16ECF84E98093BC0008951092CD009B
:1001300088E08093CC0086E08093CA0088E18093B9
:10014000C90008959091C80095FFFCCF8093CE0020
:100150000895CF93DF93EC0102C02196F3DF8881ED
:100160008111FBCFDF91CF910895E0DF81E092E034
:10017000F0DF8DE0E7DFECEBF0E080818B7F8083C8
:100180001092B9008CE08093B80084E0808383E013
:100190008A95F1F70000089584EA8093BC0080916D
:1001A000BC008823E4F78091B900887F8830D9F7B4
:1001B00083E492E0CEDF8DE0C5CF08958093BB004D
:1001C00084E88093BC008091BC008823E4F7809190
:1001D000B900887F8831D9F789E092E0BADF8DE0F5
:1001E000B1CF08958093BB0084E88093BC008091D8
:1001F000BC008823E4F78091B900887F8832D9F762
:1002000081E292E0A6DF8DE09DCF0895CF93C82FC5
:10021000C3DF80E4D3DF8C2FE5DF84DFCF91089547
:10022000CF93C82F8091B6028F709C2F907F892B1F
:1002300084608093B602EADF00008091B6028B7F73
:100240008093B602E3DF00C000C0000080E1C89FD9
:10025000900111248091B6028F70822B846080936C
:10026000B602D4DF00008091B6028B7F8093B60285
:10027000CDDF00C000C00000CF910895CF93C82FFC
:1002800088E08093B602C2DF8C2FCADFCF91089539
:10029000CF93C82F8091B60289608093B602B6DFF3
:1002A0008C2FBEDFCF910895CF93DF93EC0102C076
:1002B0002196EEDF88818111FBCFDF91CF910895E8
:1002C00081E0DCCF089584E08093B6029FDF88E070
:1002D0008A95F1F7000083E0D1DF82E0CFDF88E28A
:1002E000CDDF8FE0CBDF81E0C9DF86E0C7DF80E8CC
:1002F000C5DF8CE792E0D8DFE3DF80E8BFCF089569
:1003000085B1816085B9089585B18E7F85B90895DD
:1003100011B88FEF87B98DB18E7F8DB984B18160AF
:1003200084B90895EAE7F0E0808180688083808165
:1003300087608083ECE7F0E08081806480830895AB
:10034000ECE7F0E09081987F8770892B8083EAE763
:10035000F0E080818064808380917A0086FDFCCF0C
:100360008091780090917900089587E68093C40089
:100370001092C50088E08093C10086E08093C2009F
:1003800008959091C00095FFFCCF8093C60008951A
:10039000E9E6F0E08081836080838DB384608DBB6B
:1003A00078940895B5DFE1DFBDDFDFDE8CDFF0DFBD
:1003B00080E0C6DFEC0181E061DF80E85FDFC83C00
:1003C000D10580F481E48093000289E892E06CDF3B
:1003D0002FE784E89EE1215080409040E1F700C083
:1003E000000056C0CE01885C9109883C910580F4DC
:1003F00082E48093000284E992E056DF2FE784E8EC
:100400009EE1215080409040E1F700C0000040C0D4
:10041000CE0180599140883C910580F483E480931B
:10042000000282EA92E040DF2FE784E89EE121505B
:1004300080409040E1F700C000002AC0C855D2407B
:10044000C83CD10580F484E4809300028DEA92E0F8
:100450002BDF2FE784E89EE1215080409040E1F7B8
:1004600000C0000015C082EB92E01EDF2FE784E899
:100470009EE1215080409040E1F700C000002FE74E
:1004800084E89EE1215080409040E1F700C00000E8
:1004900081E0F4DE8DCF1F920F920FB60F921124E0
:1004A0000BB60F922F933F934F935F936F937F936E
:1004B0008F939F93AF93BF93EF93FF93809100022D
:1004C00060DF1EDF2FE78AE196E0215080409040F8
:1004D000E1F700C0000018DFFF91EF91BF91AF91ED
:1004E0009F918F917F916F915F914F913F912F914C
:1004F0000F900BBE0F900FBE0F901F901895F894A1
:02050000FFCF2B
:100502004457454C434F4D450041434B2052656390
:10051200656976656420666F72204D5420534C41A4
:100522000041434B20526563656976656420666FBE
:1005320072204D542044617461005265706561748B
:100542006564205374617274204578652E0052658B
:1005520063656976696E67204D522064617461201B
:1005620041434B2000526563656976696E67204D91
:10057200522044617461204E41434B00434F444535
:100582002D4E2D4C4F47494300456D657267656E90
:10059200637920004E656564204D65646963696E08
:1005A20065004E65656420576174657200466F6F21
:0605B20064004F757400A7
:00000001FF
