S01400004144436F6E766572746572312E73726563A2
S113000071C00000FEC1000084C0000082C0000076
S113001080C000007EC000007CC000007AC00000E8
S113002078C0000076C0000074C0000072C00000F8
S113003070C000006EC000006CC000006AC0000008
S113004068C0000066C0000064C0000062C0000018
S113005060C000005EC000005CC000005AC0000028
S113006058C0000056C0000054C0000052C0000038
S113007050C000004EC000004CC000004AC0000048
S113008048C0000046C0000044C0000042C0000058
S113009040C000003EC000003CC000003AC0000068
S11300A038C0000036C0000034C0000032C0000078
S11300B030C000002EC000002CC000002AC0000088
S11300C028C0000026C0000024C0000022C0000098
S11300D020C000001EC000001CC000001AC00000A8
S11300E018C0000011241FBECFEFD1E2DEBFCDBF88
S11300F000E00CBF12E0A0E0B2E0E8EAF4E000E0C7
S11301000BBF02C007900D92A235B107D9F737D1C2
S1130110C9C176CF982F907FE8E0F1E09083908179
S11301209E7F908390819D7F908390819460908343
S1130130AFE3BCE91197F1F700C0000090819B7F09
S11301409083AFE3BCE91197F1F700C00000B0E180
S11301508B9FC0011124808380818E7F8083808166
S11301608D7F80838081846080838FE39CE9019705
S1130170F1F700C0000080818B7F8083AFE3BCE98E
S11301801197F1F700C000000895982F907FE8E0E0
S1130190F1E0908390819160908390819D7F908322
S11301A0908194609083AFE3BCE91197F1F700C0AC
S11301B0000090819B7F9083AFE3BCE91197F1F736
S11301C000C00000B0E18B9FC001112480838081B6
S11301D08160808380818D7F80838081846080833F
S11301E08FE39CE90197F1F700C0000080818B7FC9
S11301F08083AFE3BCE91197F1F700C000000895D4
S1130200CF93DF93EC0102C0C0DF21968881811176
S1130210FBCFDF91CF9108958FEF8093070182E0A8
S113022079DF88E277DF8EE075DF81E073CF0895B0
S1130230CF93DF93EC0181E06DDFDD2334F48DE2B5
S1130240A4DFD195C195D10905C0209719F480E3A5
S11302509CDF44C0CE0160E177E2FDD0161617069C
S11302601CF480E3860F91DFCE0160E177E2F3D0E6
S1130270EC0168EE73E0EFD01616170624F0C83EC2
S113028083E0D8071CF080E3860F7FDFCE0168EEA1
S113029073E0E1D0EC0164E670E0DDD016161706D9
S11302A01CF0C436D1051CF080E3860F6EDFCE014E
S11302B064E670E0D0D0EC016AE070E0CCD01616B1
S11302C017061CF0CA30D1051CF080E3860F5DDFF1
S11302D0CE016AE070E0BFD0805D57DFDF91CF913F
S11302E0089588B1816088B9089587E68093C40031
S11302F01092C500E1ECF0E0808188618083E2EC3B
S1130300F0E080818660808308959091C00095FF1D
S1130310FCCF8093C600089511B88FEF87B98EEF94
S11303208DB90895EAE7F0E0808180688083808158
S1130330876080838081806480830895ECE7F0E0A7
S11303409081907F892B808380818F738083EAE7FB
S1130350F0E080818064808380917A0086FDFCCF08
S113036080917800909179000895E9E6F0E0808129
S1130370836080838DB381608DBB78940895CCDFD6
S1130380B4DFD0DF49DFF1DF80E0D8DFEC0181E0CA
S1130390C1DE80E092E0F9DECE014ADF80ECBADE15
S11303A0C436D10520F48CE092E02ADF20C0CE01CF
S11303B0845691098436910520F480E292E020DF8E
S11303C016C0CE01885C91098436910520F48EE232
S11303D092E016DF0CC0CC52D140C436D10520F4D3
S11303E089E392E00DDF03C083E492E009DF2FEF9D
S11303F087EA91E6215080409040E1F700C0000078
S1130400C3CF1F920F920FB60F9211240BB60F9207
S11304102F933F934F935F936F937F938F939F9308
S1130420AF93BF93EF93FF935CDF80E592E06DDFC2
S1130430FF91EF91BF91AF919F918F917F916F91B8
S11304405F914F913F912F910F900BBE0F900FBE74
S11304500F901F90189597FB072E16F4009406D062
S113046077FD08D00BD007FC05D03EF4909581951C
S11304709F4F0895709561957F4F0895AA1BBB1BEC
S113048051E107C0AA1FBB1FA617B70710F0A61B90
S1130490B70B881F991F5A95A9F780959095BC01B1
S10B04A0CD010895F894FFCF8B
S11304A8506F742056616C75653A2000456D65720D
S11304B867656E637920536974756174696F6E003A
S11304C84E656564204D65646963696E65004E65B3
S11304D86564205761746572004E65656420666FB3
S11304E86F64004F7574206F662052616E676500F3
S10504F84700B7
S9030000FC
